{
  "_format": "hh-sol-artifact-1",
  "contractName": "GojoNft",
  "sourceName": "contracts/nftMint.sol",
  "abi": [
    {
      "inputs": [],
      "stateMutability": "nonpayable",
      "type": "constructor"
    },
    {
      "anonymous": false,
      "inputs": [
        {
          "indexed": true,
          "internalType": "address",
          "name": "owner",
          "type": "address"
        },
        {
          "indexed": true,
          "internalType": "address",
          "name": "approved",
          "type": "address"
        },
        {
          "indexed": true,
          "internalType": "uint256",
          "name": "tokenId",
          "type": "uint256"
        }
      ],
      "name": "Approval",
      "type": "event"
    },
    {
      "anonymous": false,
      "inputs": [
        {
          "indexed": true,
          "internalType": "address",
          "name": "owner",
          "type": "address"
        },
        {
          "indexed": true,
          "internalType": "address",
          "name": "operator",
          "type": "address"
        },
        {
          "indexed": false,
          "internalType": "bool",
          "name": "approved",
          "type": "bool"
        }
      ],
      "name": "ApprovalForAll",
      "type": "event"
    },
    {
      "anonymous": false,
      "inputs": [
        {
          "indexed": false,
          "internalType": "uint256",
          "name": "_fromTokenId",
          "type": "uint256"
        },
        {
          "indexed": false,
          "internalType": "uint256",
          "name": "_toTokenId",
          "type": "uint256"
        }
      ],
      "name": "BatchMetadataUpdate",
      "type": "event"
    },
    {
      "anonymous": false,
      "inputs": [
        {
          "indexed": false,
          "internalType": "uint256",
          "name": "_tokenId",
          "type": "uint256"
        }
      ],
      "name": "MetadataUpdate",
      "type": "event"
    },
    {
      "anonymous": false,
      "inputs": [
        {
          "indexed": true,
          "internalType": "address",
          "name": "previousOwner",
          "type": "address"
        },
        {
          "indexed": true,
          "internalType": "address",
          "name": "newOwner",
          "type": "address"
        }
      ],
      "name": "OwnershipTransferred",
      "type": "event"
    },
    {
      "anonymous": false,
      "inputs": [
        {
          "indexed": true,
          "internalType": "address",
          "name": "from",
          "type": "address"
        },
        {
          "indexed": true,
          "internalType": "address",
          "name": "to",
          "type": "address"
        },
        {
          "indexed": true,
          "internalType": "uint256",
          "name": "tokenId",
          "type": "uint256"
        }
      ],
      "name": "Transfer",
      "type": "event"
    },
    {
      "inputs": [
        {
          "internalType": "address",
          "name": "to",
          "type": "address"
        },
        {
          "internalType": "uint256",
          "name": "tokenId",
          "type": "uint256"
        }
      ],
      "name": "approve",
      "outputs": [],
      "stateMutability": "nonpayable",
      "type": "function"
    },
    {
      "inputs": [
        {
          "internalType": "address",
          "name": "owner",
          "type": "address"
        }
      ],
      "name": "balanceOf",
      "outputs": [
        {
          "internalType": "uint256",
          "name": "",
          "type": "uint256"
        }
      ],
      "stateMutability": "view",
      "type": "function"
    },
    {
      "inputs": [
        {
          "internalType": "uint256",
          "name": "tokenId",
          "type": "uint256"
        }
      ],
      "name": "getApproved",
      "outputs": [
        {
          "internalType": "address",
          "name": "",
          "type": "address"
        }
      ],
      "stateMutability": "view",
      "type": "function"
    },
    {
      "inputs": [],
      "name": "getTokenArray",
      "outputs": [
        {
          "internalType": "uint256[]",
          "name": "",
          "type": "uint256[]"
        }
      ],
      "stateMutability": "view",
      "type": "function"
    },
    {
      "inputs": [
        {
          "internalType": "address",
          "name": "owner",
          "type": "address"
        },
        {
          "internalType": "address",
          "name": "operator",
          "type": "address"
        }
      ],
      "name": "isApprovedForAll",
      "outputs": [
        {
          "internalType": "bool",
          "name": "",
          "type": "bool"
        }
      ],
      "stateMutability": "view",
      "type": "function"
    },
    {
      "inputs": [
        {
          "internalType": "address",
          "name": "to",
          "type": "address"
        },
        {
          "internalType": "string",
          "name": "uri",
          "type": "string"
        },
        {
          "internalType": "uint256",
          "name": "_count",
          "type": "uint256"
        }
      ],
      "name": "mintTokens",
      "outputs": [],
      "stateMutability": "payable",
      "type": "function"
    },
    {
      "inputs": [],
      "name": "name",
      "outputs": [
        {
          "internalType": "string",
          "name": "",
          "type": "string"
        }
      ],
      "stateMutability": "view",
      "type": "function"
    },
    {
      "inputs": [],
      "name": "owner",
      "outputs": [
        {
          "internalType": "address",
          "name": "",
          "type": "address"
        }
      ],
      "stateMutability": "view",
      "type": "function"
    },
    {
      "inputs": [
        {
          "internalType": "uint256",
          "name": "tokenId",
          "type": "uint256"
        }
      ],
      "name": "ownerOf",
      "outputs": [
        {
          "internalType": "address",
          "name": "",
          "type": "address"
        }
      ],
      "stateMutability": "view",
      "type": "function"
    },
    {
      "inputs": [],
      "name": "renounceOwnership",
      "outputs": [],
      "stateMutability": "nonpayable",
      "type": "function"
    },
    {
      "inputs": [
        {
          "internalType": "address",
          "name": "from",
          "type": "address"
        },
        {
          "internalType": "address",
          "name": "to",
          "type": "address"
        },
        {
          "internalType": "uint256",
          "name": "tokenId",
          "type": "uint256"
        }
      ],
      "name": "safeTransferFrom",
      "outputs": [],
      "stateMutability": "nonpayable",
      "type": "function"
    },
    {
      "inputs": [
        {
          "internalType": "address",
          "name": "from",
          "type": "address"
        },
        {
          "internalType": "address",
          "name": "to",
          "type": "address"
        },
        {
          "internalType": "uint256",
          "name": "tokenId",
          "type": "uint256"
        },
        {
          "internalType": "bytes",
          "name": "data",
          "type": "bytes"
        }
      ],
      "name": "safeTransferFrom",
      "outputs": [],
      "stateMutability": "nonpayable",
      "type": "function"
    },
    {
      "inputs": [
        {
          "internalType": "address",
          "name": "operator",
          "type": "address"
        },
        {
          "internalType": "bool",
          "name": "approved",
          "type": "bool"
        }
      ],
      "name": "setApprovalForAll",
      "outputs": [],
      "stateMutability": "nonpayable",
      "type": "function"
    },
    {
      "inputs": [
        {
          "internalType": "bytes4",
          "name": "interfaceId",
          "type": "bytes4"
        }
      ],
      "name": "supportsInterface",
      "outputs": [
        {
          "internalType": "bool",
          "name": "",
          "type": "bool"
        }
      ],
      "stateMutability": "view",
      "type": "function"
    },
    {
      "inputs": [],
      "name": "symbol",
      "outputs": [
        {
          "internalType": "string",
          "name": "",
          "type": "string"
        }
      ],
      "stateMutability": "view",
      "type": "function"
    },
    {
      "inputs": [
        {
          "internalType": "uint256",
          "name": "tokenId",
          "type": "uint256"
        }
      ],
      "name": "tokenURI",
      "outputs": [
        {
          "internalType": "string",
          "name": "",
          "type": "string"
        }
      ],
      "stateMutability": "view",
      "type": "function"
    },
    {
      "inputs": [
        {
          "internalType": "address",
          "name": "from",
          "type": "address"
        },
        {
          "internalType": "address",
          "name": "to",
          "type": "address"
        },
        {
          "internalType": "uint256",
          "name": "tokenId",
          "type": "uint256"
        }
      ],
      "name": "transferFrom",
      "outputs": [],
      "stateMutability": "nonpayable",
      "type": "function"
    },
    {
      "inputs": [
        {
          "internalType": "address",
          "name": "newOwner",
          "type": "address"
        }
      ],
      "name": "transferOwnership",
      "outputs": [],
      "stateMutability": "nonpayable",
      "type": "function"
    }
  ],
  "bytecode": "0x60806040523480156200001157600080fd5b50604080518082018252600781526629a422a42927ad60c91b60208083019182528351808501909452600384526214d69560ea1b9084015281519192916200005c91600091620000eb565b50805162000072906001906020840190620000eb565b5050506200008f620000896200009560201b60201c565b62000099565b620001ce565b3390565b600780546001600160a01b038381166001600160a01b0319831681179093556040519116919082907f8be0079c531659141344cd1fd0a4f28419497f9722a3daafe3b4186f6b6457e090600090a35050565b828054620000f99062000191565b90600052602060002090601f0160209004810192826200011d576000855562000168565b82601f106200013857805160ff191683800117855562000168565b8280016001018555821562000168579182015b82811115620001685782518255916020019190600101906200014b565b50620001769291506200017a565b5090565b5b808211156200017657600081556001016200017b565b600181811c90821680620001a657607f821691505b60208210811415620001c857634e487b7160e01b600052602260045260246000fd5b50919050565b611aa980620001de6000396000f3fe6080604052600436106101095760003560e01c80638da5cb5b11610095578063bdadad5211610064578063bdadad52146102d5578063c87b56dd146102e8578063cf37d74e14610308578063e985e9c51461032a578063f2fde38b1461037357600080fd5b80638da5cb5b1461026257806395d89b4114610280578063a22cb46514610295578063b88d4fde146102b557600080fd5b806323b872dd116100dc57806323b872dd146101bf57806342842e0e146101df5780636352211e146101ff57806370a082311461021f578063715018a61461024d57600080fd5b806301ffc9a71461010e57806306fdde0314610143578063081812fc14610165578063095ea7b31461019d575b600080fd5b34801561011a57600080fd5b5061012e61012936600461176d565b610393565b60405190151581526020015b60405180910390f35b34801561014f57600080fd5b506101586103a4565b60405161013a9190611899565b34801561017157600080fd5b506101856101803660046117a5565b610436565b6040516001600160a01b03909116815260200161013a565b3480156101a957600080fd5b506101bd6101b8366004611744565b61045d565b005b3480156101cb57600080fd5b506101bd6101da3660046115ee565b610578565b3480156101eb57600080fd5b506101bd6101fa3660046115ee565b6105a9565b34801561020b57600080fd5b5061018561021a3660046117a5565b6105c4565b34801561022b57600080fd5b5061023f61023a3660046115a2565b610624565b60405190815260200161013a565b34801561025957600080fd5b506101bd6106aa565b34801561026e57600080fd5b506007546001600160a01b0316610185565b34801561028c57600080fd5b506101586106be565b3480156102a157600080fd5b506101bd6102b03660046116a2565b6106cd565b3480156102c157600080fd5b506101bd6102d0366004611629565b6106dc565b6101bd6102e33660046116dc565b610714565b3480156102f457600080fd5b506101586103033660046117a5565b610812565b34801561031457600080fd5b5061031d61081d565b60405161013a9190611855565b34801561033657600080fd5b5061012e6103453660046115bc565b6001600160a01b03918216600090815260056020908152604080832093909416825291909152205460ff1690565b34801561037f57600080fd5b506101bd61038e3660046115a2565b610874565b600061039e826108ed565b92915050565b6060600080546103b3906119db565b80601f01602080910402602001604051908101604052809291908181526020018280546103df906119db565b801561042c5780601f106104015761010080835404028352916020019161042c565b820191906000526020600020905b81548152906001019060200180831161040f57829003601f168201915b5050505050905090565b600061044182610912565b506000908152600460205260409020546001600160a01b031690565b6000610468826105c4565b9050806001600160a01b0316836001600160a01b031614156104db5760405162461bcd60e51b815260206004820152602160248201527f4552433732313a20617070726f76616c20746f2063757272656e74206f776e656044820152603960f91b60648201526084015b60405180910390fd5b336001600160a01b03821614806104f757506104f78133610345565b6105695760405162461bcd60e51b815260206004820152603d60248201527f4552433732313a20617070726f76652063616c6c6572206973206e6f7420746f60448201527f6b656e206f776e6572206f7220617070726f76656420666f7220616c6c00000060648201526084016104d2565b6105738383610971565b505050565b61058233826109df565b61059e5760405162461bcd60e51b81526004016104d2906118ac565b610573838383610a5e565b610573838383604051806020016040528060008152506106dc565b6000818152600260205260408120546001600160a01b03168061039e5760405162461bcd60e51b8152602060048201526018602482015277115490cdcc8c4e881a5b9d985b1a59081d1bdad95b88125160421b60448201526064016104d2565b60006001600160a01b03821661068e5760405162461bcd60e51b815260206004820152602960248201527f4552433732313a2061646472657373207a65726f206973206e6f7420612076616044820152683634b21037bbb732b960b91b60648201526084016104d2565b506001600160a01b031660009081526003602052604090205490565b6106b2610bc2565b6106bc6000610c1c565b565b6060600180546103b3906119db565b6106d8338383610c6e565b5050565b6106e633836109df565b6107025760405162461bcd60e51b81526004016104d2906118ac565b61070e84848484610d3d565b50505050565b61071c610bc2565b66038d7ea4c6800061072e8282611990565b3410156107895760405162461bcd60e51b8152602060048201526024808201527f496e73756666696369656e742045746865722073656e7420666f72206d696e7460448201526334b7339760e11b60648201526084016104d2565b60005b8281101561080b57600061079f60085490565b90506107af600880546001019055565b600980546001810182556000919091527f6e1540171b6c0c960b71a7020d9f60077f6af931a8bbf590da0223dacf75c7af018190556107ee8682610d70565b6107f88186610d8a565b508061080381611a16565b91505061078c565b5050505050565b606061039e82610e5c565b6060600980548060200260200160405190810160405280929190818152602001828054801561042c57602002820191906000526020600020905b815481526020019060010190808311610857575050505050905090565b61087c610bc2565b6001600160a01b0381166108e15760405162461bcd60e51b815260206004820152602660248201527f4f776e61626c653a206e6577206f776e657220697320746865207a65726f206160448201526564647265737360d01b60648201526084016104d2565b6108ea81610c1c565b50565b60006001600160e01b03198216632483248360e11b148061039e575061039e82610f65565b6000818152600260205260409020546001600160a01b03166108ea5760405162461bcd60e51b8152602060048201526018602482015277115490cdcc8c4e881a5b9d985b1a59081d1bdad95b88125160421b60448201526064016104d2565b600081815260046020526040902080546001600160a01b0319166001600160a01b03841690811790915581906109a6826105c4565b6001600160a01b03167f8c5be1e5ebec7d5bd14f71427d1e84f3dd0314c0f7b2291e5b200ac8c7c3b92560405160405180910390a45050565b6000806109eb836105c4565b9050806001600160a01b0316846001600160a01b03161480610a3257506001600160a01b0380821660009081526005602090815260408083209388168352929052205460ff165b80610a565750836001600160a01b0316610a4b84610436565b6001600160a01b0316145b949350505050565b826001600160a01b0316610a71826105c4565b6001600160a01b031614610a975760405162461bcd60e51b81526004016104d29061194b565b6001600160a01b038216610af95760405162461bcd60e51b8152602060048201526024808201527f4552433732313a207472616e7366657220746f20746865207a65726f206164646044820152637265737360e01b60648201526084016104d2565b826001600160a01b0316610b0c826105c4565b6001600160a01b031614610b325760405162461bcd60e51b81526004016104d29061194b565b600081815260046020908152604080832080546001600160a01b03199081169091556001600160a01b0387811680865260038552838620805460001901905590871680865283862080546001019055868652600290945282852080549092168417909155905184937fddf252ad1be2c89b69c2b068fc378daa952ba7f163c4a11628f55a4df523b3ef91a4505050565b6007546001600160a01b031633146106bc5760405162461bcd60e51b815260206004820181905260248201527f4f776e61626c653a2063616c6c6572206973206e6f7420746865206f776e657260448201526064016104d2565b600780546001600160a01b038381166001600160a01b0319831681179093556040519116919082907f8be0079c531659141344cd1fd0a4f28419497f9722a3daafe3b4186f6b6457e090600090a35050565b816001600160a01b0316836001600160a01b03161415610cd05760405162461bcd60e51b815260206004820152601960248201527f4552433732313a20617070726f766520746f2063616c6c65720000000000000060448201526064016104d2565b6001600160a01b03838116600081815260056020908152604080832094871680845294825291829020805460ff191686151590811790915591519182527f17307eab39ab6107e8899845ad3d59bd9653f200f220920489ca2b5937696c31910160405180910390a3505050565b610d48848484610a5e565b610d5484848484610fb5565b61070e5760405162461bcd60e51b81526004016104d2906118f9565b6106d88282604051806020016040528060008152506110c2565b6000828152600260205260409020546001600160a01b0316610e055760405162461bcd60e51b815260206004820152602e60248201527f45524337323155524953746f726167653a2055524920736574206f66206e6f6e60448201526d32bc34b9ba32b73a103a37b5b2b760911b60648201526084016104d2565b60008281526006602090815260409091208251610e2492840190611477565b506040518281527ff8e1a15aba9398e019f0b49df1a4fde98ee17ae345cb5f6b5e2c27f5033e8ce79060200160405180910390a15050565b6060610e6782610912565b60008281526006602052604081208054610e80906119db565b80601f0160208091040260200160405190810160405280929190818152602001828054610eac906119db565b8015610ef95780601f10610ece57610100808354040283529160200191610ef9565b820191906000526020600020905b815481529060010190602001808311610edc57829003601f168201915b505050505090506000610f1760408051602081019091526000815290565b9050805160001415610f2a575092915050565b815115610f5c578082604051602001610f449291906117e9565b60405160208183030381529060405292505050919050565b610a56846110f5565b60006001600160e01b031982166380ac58cd60e01b1480610f9657506001600160e01b03198216635b5e139f60e01b145b8061039e57506301ffc9a760e01b6001600160e01b031983161461039e565b60006001600160a01b0384163b156110b757604051630a85bd0160e11b81526001600160a01b0385169063150b7a0290610ff9903390899088908890600401611818565b602060405180830381600087803b15801561101357600080fd5b505af1925050508015611043575060408051601f3d908101601f1916820190925261104091810190611789565b60015b61109d573d808015611071576040519150601f19603f3d011682016040523d82523d6000602084013e611076565b606091505b5080516110955760405162461bcd60e51b81526004016104d2906118f9565b805181602001fd5b6001600160e01b031916630a85bd0160e11b149050610a56565b506001949350505050565b6110cc8383611169565b6110d96000848484610fb5565b6105735760405162461bcd60e51b81526004016104d2906118f9565b606061110082610912565b600061111760408051602081019091526000815290565b905060008151116111375760405180602001604052806000815250611162565b80611141846112f4565b6040516020016111529291906117e9565b6040516020818303038152906040525b9392505050565b6001600160a01b0382166111bf5760405162461bcd60e51b815260206004820181905260248201527f4552433732313a206d696e7420746f20746865207a65726f206164647265737360448201526064016104d2565b6000818152600260205260409020546001600160a01b0316156112245760405162461bcd60e51b815260206004820152601c60248201527f4552433732313a20746f6b656e20616c7265616479206d696e7465640000000060448201526064016104d2565b6000818152600260205260409020546001600160a01b0316156112895760405162461bcd60e51b815260206004820152601c60248201527f4552433732313a20746f6b656e20616c7265616479206d696e7465640000000060448201526064016104d2565b6001600160a01b038216600081815260036020908152604080832080546001019055848352600290915280822080546001600160a01b0319168417905551839291907fddf252ad1be2c89b69c2b068fc378daa952ba7f163c4a11628f55a4df523b3ef908290a45050565b606060006113018361139f565b600101905060008167ffffffffffffffff81111561132f57634e487b7160e01b600052604160045260246000fd5b6040519080825280601f01601f191660200182016040528015611359576020820181803683370190505b5090508181016020015b600019016f181899199a1a9b1b9c1cb0b131b232b360811b600a86061a8153600a850494508461139257611397565b611363565b509392505050565b60008072184f03e93ff9f4daa797ed6e38ed64bf6a1f0160401b83106113de5772184f03e93ff9f4daa797ed6e38ed64bf6a1f0160401b830492506040015b6d04ee2d6d415b85acef8100000000831061140a576d04ee2d6d415b85acef8100000000830492506020015b662386f26fc10000831061142857662386f26fc10000830492506010015b6305f5e1008310611440576305f5e100830492506008015b612710831061145457612710830492506004015b60648310611466576064830492506002015b600a831061039e5760010192915050565b828054611483906119db565b90600052602060002090601f0160209004810192826114a557600085556114eb565b82601f106114be57805160ff19168380011785556114eb565b828001600101855582156114eb579182015b828111156114eb5782518255916020019190600101906114d0565b506114f79291506114fb565b5090565b5b808211156114f757600081556001016114fc565b600067ffffffffffffffff8084111561152b5761152b611a47565b604051601f8501601f19908116603f0116810190828211818310171561155357611553611a47565b8160405280935085815286868601111561156c57600080fd5b858560208301376000602087830101525050509392505050565b80356001600160a01b038116811461159d57600080fd5b919050565b6000602082840312156115b3578081fd5b61116282611586565b600080604083850312156115ce578081fd5b6115d783611586565b91506115e560208401611586565b90509250929050565b600080600060608486031215611602578081fd5b61160b84611586565b925061161960208501611586565b9150604084013590509250925092565b6000806000806080858703121561163e578081fd5b61164785611586565b935061165560208601611586565b925060408501359150606085013567ffffffffffffffff811115611677578182fd5b8501601f81018713611687578182fd5b61169687823560208401611510565b91505092959194509250565b600080604083850312156116b4578182fd5b6116bd83611586565b9150602083013580151581146116d1578182fd5b809150509250929050565b6000806000606084860312156116f0578283fd5b6116f984611586565b9250602084013567ffffffffffffffff811115611714578283fd5b8401601f81018613611724578283fd5b61173386823560208401611510565b925050604084013590509250925092565b60008060408385031215611756578182fd5b61175f83611586565b946020939093013593505050565b60006020828403121561177e578081fd5b813561116281611a5d565b60006020828403121561179a578081fd5b815161116281611a5d565b6000602082840312156117b6578081fd5b5035919050565b600081518084526117d58160208601602086016119af565b601f01601f19169290920160200192915050565b600083516117fb8184602088016119af565b83519083019061180f8183602088016119af565b01949350505050565b6001600160a01b038581168252841660208201526040810183905260806060820181905260009061184b908301846117bd565b9695505050505050565b6020808252825182820181905260009190848201906040850190845b8181101561188d57835183529284019291840191600101611871565b50909695505050505050565b60208152600061116260208301846117bd565b6020808252602d908201527f4552433732313a2063616c6c6572206973206e6f7420746f6b656e206f776e6560408201526c1c881bdc88185c1c1c9bdd9959609a1b606082015260800190565b60208082526032908201527f4552433732313a207472616e7366657220746f206e6f6e20455243373231526560408201527131b2b4bb32b91034b6b83632b6b2b73a32b960711b606082015260800190565b60208082526025908201527f4552433732313a207472616e736665722066726f6d20696e636f72726563742060408201526437bbb732b960d91b606082015260800190565b60008160001904831182151516156119aa576119aa611a31565b500290565b60005b838110156119ca5781810151838201526020016119b2565b8381111561070e5750506000910152565b600181811c908216806119ef57607f821691505b60208210811415611a1057634e487b7160e01b600052602260045260246000fd5b50919050565b6000600019821415611a2a57611a2a611a31565b5060010190565b634e487b7160e01b600052601160045260246000fd5b634e487b7160e01b600052604160045260246000fd5b6001600160e01b0319811681146108ea57600080fdfea2646970667358221220bbde2fb77ab17d965c809fcd940bc46c4d8a3dbe7986f04cd4db3876d25068bc64736f6c63430008040033",
  "linkReferences": {},
  "deployedLinkReferences": {}
}